:06000000020021020110C4
:03000B00020123CC
:0100130032BA
:03001B0002014F90
:0300340002001EA9
:03001E000203FBDF
:10003700E582900008F0E0FF7E00C3EE9F500400C9
:100047000E80F722AF82AE83ADF0FC900009EFF08F
:10005700EEA3F0EDA3F0ECA3F0900009E0FCA3E021
:10006700FDA3E0FEA3E0FF780079007A007B00C3E0
:10007700E89CE99DEA9EEB9F5025751621751700B0
:1000870000151674FFB516021517E516451770F01B
:1000970008B8000909B900050ABA00D30B80D022B5
:1000A7007580FFC291D290D292758205120037A255
:1000B70087E433FE7F00C292EE4F70E422E5829020
:1000C700000DF01200A7C291C290C29290000DE0FD
:1000D700F580758202120037D292758202120037BC
:1000E700C29222E58290000EF01200A7D291C29030
:1000F700C29290000EE0F580758202120037D2920C
:10010700758202120037C29222C0E0C082C083907B
:1001170000067401F0D083D082D0E032C0E0C08204
:10012700C083900001E014F0E070109000077401A4
:10013700F0C28CC2A9C28EC2AB8006758AB0758C1C
:100147003CD083D082D0E032C0E0C082C083C007F9
:10015700C006C005C004C0D075D000758B00758D72
:1001670000900002E0FCA3E0FDA3E0FEA3E0FF9007
:100177000002ECF0EDA3F074012EA3F0E43FA3F02E
:10018700D0D0D004D005D006D007D083D082D0E01D
:1001970032AFF0AE83E58290002FF0EEA3F0EFA32D
:1001A700F07582011200C47582801200C490002F7E
:1001B700E0FDA3E0FEA3E0FF7C00EC2DF9E43EFAAE
:1001C7008F0389828A838BF0121B10FB6036BC2059
:1001D7000050318B82C007C006C005C0041200EA78
:1001E700D004D005D006D007BC0F167582C0C00753
:1001F700C006C005C0041200C4D004D005D006D084
:10020700070C80B622AFF0AE83E582900033F0EEA4
:10021700A3F0EFA3F0900032E0700875828012001F
:10022700C480067582C01200C4900033E0FDA3E0CD
:10023700FEA3E0FF7C008D828E838FF0121B10FBE4
:1002470060278B82C007C006C005C0041200EAD031
:1002570004D005D006D0070DBD00010E900033ED88
:10026700F0EEA3F0EFA3F08016758220C007C0065A
:10027700C005C0041200EAD004D005D006D0070C90
:10028700BC100040B1900033EDF0EEA3F0EFA3F007
:1002970022AF82AE83ADF0FC90003CEFF0EEA3F00E
:1002A700EDA3F0ECA3F0900036E0F508A3E0F50924
:1002B700A3E0F50A90003CE0F9A3E0FAA3E0FBA372
:1002C700E0FC89828A838BF0C004C003C002C001AE
:1002D700120ED6AD82AE83A8F0FFD001D002D003B4
:1002E700D004850882850983850AF0ED120F67A37C
:1002F700EE120F67A3E8120F67A3EF120F679000C4
:1003070039E0FDA3E0FEA3E0FFC007C006C005C0BB
:1003170001C002C003C00490000075F0C874421207
:100327000CDEA982AA83ABF0FCE58124FCF5818968
:10033700828A838BF0EC120ED6A982AA83ABF0FCDB
:1003470090005F7464F0E4A3F0A3F0A3F089828ABD
:10035700838BF0EC120A91A982AA83D005D006D02C
:10036700078D828E838FF0E9120F67A3EA020F676A
:10037700AFF0AE83E582900047F0EEA3F0EFA3F075
:10038700900043E0FCA3E0FDA3E0FEA3E0FF9000A4
:1003970036744AF07400A3F0E4A3F0900039744E69
:1003A700F07400A3F0E4A3F08C828D838EF0EF123B
:1003B700029890004EE0C0E0A3E0C0E090004AE061
:1003C700C0E0A3E0C0E0A3E0C0E0A3E0C0E090008D
:1003D70040E0C0E0A3E0C0E0A3E0C0E0900047E059
:1003E700C0E0A3E0C0E0A3E0C0E0121125E581244E
:1003F700F4F58122900054743BF074AAA3F0749A28
:10040700A3F0743AA3F0758E011200A7758201124A
:1004170000C47582381200C475820C1200C475823C
:10042700061200C4901B7375F08012019890006447
:10043700E4F5F012004B900006E4F0900058F075D8
:100447008951C288D2A8C28CC2A9C28EC2ABD2AF10
:10045700900007E4F09000017428F0900002E4F0A7
:10046700A3F0A3F0A3F0758AB0758C3CD28CD2A907
:10047700758B00758D00D28ED2AB900007E060FAC5
:10048700AF8D7E00AC8B7D00EC2EFEED3FFF900024
:1004970002E0FAA3E0FBA3E0FCA3E0FD8E008F01DE
:1004A7007E007F00900002E82AF0E93BA3F0EE3CD3
:1004B700A3F0EF3DA3F0900002E0FCA3E0FDA3E072
:1004C700FEA3E0FFC3E49CE49DE49EE49F40030297
:1004D70005888C828D838EF0EF120F42AC82AD833C
:1004E700AEF0FFE4C0E07424C0E07474C0E0744967
:1004F700C0E08C828D838EF0EF121A4DAC82AD83F3
:10050700AEF0FFE58124FCF581C004C005C006C03C
:100517000790F96A75F022743E121A4DAC82AD83CA
:10052700AEF0FFE58124FCF581C004C005C006C01C
:10053700078C828D838EF0EF120CDEAC82AD83AE1A
:10054700F0FFE58124FCF581900054E0C0E0A3E0D2
:10055700C0E0A3E0C0E0A3E0C0E08C828D838EF012
:10056700EF121A4DAC82AD83AEF0FFE58124FCF5A6
:1005770081900050ECF0EDA3F0EEA3F0EFA3F08034
:100587000B900050E4F0A3F0A3F0A3F075820112E2
:1005970000C4900006E0FFBF015D900032E4F090D8
:1005A7001B8375F08012020C9000327401F0901BCF
:1005B7009275F08012020C9003E8E4F5F012004BFC
:1005C700900006E4F090005804F0900007E4F090E3
:1005D70000017428F0900002E4F0A3F0A3F0A3F068
:1005E700758AB0758C3CD28CD2A9758B00758D003D
:1005F700D28ED2AB020481900002E0FCA3E0FDA3FF
:10060700E0FEA3E0FF90006774E8F07403A3F0E452
:10061700A3F0A3F08C828D838EF0EFC007C006C0D5
:1006270005C004120B45A882A983AAF0FBD004D009
:1006370005D006D00790007674E8F07403A3F0E4C1
:10064700A3F0A3F08C828D838EF0EFC003C002C0AD
:1006570001C000120DAFAC82AD83AEF0FFD000D069
:1006670001D002D003C000C001C002C003C004C053
:1006770005C006C007749EC0E0741BC0E07480C04C
:10068700E0740FC0E07400C0E0E4C0E0121125E59B
:100697008124F2F581900032E4F090000F75F000AC
:1006A70012020C900058E0FFBF0102800302089C71
:1006B700900050E0FCA3E0FDA3E0FEA3E0FF8CF078
:1006C700ED42F0EE42F0EF547F45F0701A90007063
:1006D70074B2F0741BA3F07480A3F090000F75F050
:1006E70000120C8502087CC007C006C005C004E4E0
:1006F700C0E07480C0E07409C0E07445C0E08C823B
:100707008D838EF0EF120F31AB82E58124FCF581EA
:10071700D004D005D006D007EB601A90007074C0E3
:10072700F0741BA3F07480A3F090000F75F0001213
:100737000C8502087CE4C0E07480C0E07409C0E066
:100747007445C0E08C828D838EF0EF120A86AC82EE
:10075700AD83AEF0FFE58124FCF581E4C0E0748051
:10076700C0E07409C0E07445C0E08C828D838EF0D0
:10077700EF121A4DAC82AD83AEF0FFE58124FCF594
:1007870081900054E0F8A3E0F9A3E0FAA3E0FBC0EE
:1007970003C002C001C000C000C001C002C0038C7A
:1007A700828D838EF0EF120CDEAC82AD83AEF0FF4C
:1007B700E58124FCF581D000D001D002D003C0042C
:1007C700C005C006C007888289838AF0EB120FB282
:1007D700AC82AD83AEF0FFE58124FCF58190005437
:1007E700ECF0EDA3F0EEA3F0EFA3F0900054E0C01F
:1007F700E0A3E0C0E0A3E0C0E0A3E0C0E0902400F5
:1008070075F0747449120CDEAC82AD83AEF0FFE56F
:100817008124FCF5819000367459F07400A3F0E44C
:10082700A3F0900039745DF07400A3F0E4A3F08C9A
:10083700828D838EF0EF12029890005DE0C0E0A3F6
:10084700E0C0E0900059E0C0E0A3E0C0E0A3E0C052
:10085700E0A3E0C0E074CDC0E0741BC0E07480C0CA
:10086700E0740FC0E07400C0E0E4C0E0121125E5B9
:100877008124F4F5819000327401F090000F75F037
:100887000012020C9003E8E4F5F012004B900058B8
:10089700E4F0020A59900050E0FCA3E0FDA3E0FE5B
:1008A700A3E0FFE4C0E07480C0E07409C0E07445D1
:1008B700C0E08C828D838EF0EF120A86AC82AD8306
:1008C700AEF0FFE58124FCF581900050ECF0EDA33C
:1008D700F0EEA3F0EFA3F0900050E0FCA3E0FDA33F
:1008E700E0FEA3E0FF740AC0E074D7C0E07423C041
:1008F700E0743CC0E08C828D838EF0EF120F82AFE4
:1009070082E58124FCF581EF600B900050E4F0A3B1
:10091700F0A3F0A3F0900050E0FCA3E0FDA3E0FEFD
:10092700A3E0FFC007C006C005C004E4C0E07480B0
:10093700C0E07489C0E07444C0E08C828D838EF07F
:10094700EF120F82AB82E58124FCF581D004D0053C
:10095700D006D007EB602890004074E0F0741BA32A
:10096700F07480A3F0900043ECF0EDA3F0EEA3F059
:10097700EFA3F090000F75F000120377020A4AC048
:1009870007C006C005C0047480C0E07462C0E0748C
:1009970074C0E07449C0E08C828D838EF0EF120F33
:1009A70082AB82E58124FCF581D004D005D006D046
:1009B70007EB6067E4C0E0C0E0747AC0E07444C04D
:1009C700E08C828D838EF0EF121A4DA882A983AA3C
:1009D700F0FBE58124FCF581900050E8F0E9A3F0F5
:1009E700EAA3F0EBA3F0900050E0F8A3E0F9A3E04E
:1009F700FAA3E0FB90004074F3F0741BA3F074803B
:100A0700A3F0900043E8F0E9A3F0EAA3F0EBA3F02A
:100A170090000F75F0001203778028C004C005C04E
:100A270006C0077406C0E0741CC0E07480C0E074A0
:100A37000FC0E07400C0E0E4C0E0121125E5812496
:100A4700F6F5819000327401F090000F75F00012F6
:100A5700020C900007E4F09000017428F090000267
:100A6700E4F0A3F0A3F0A3F0758AB0758C3CD28CA8
:0F0A7700D2A9758B00758D00D28ED2AB0204818F
:101B7300202020204C2D4D4554455220202020006C
:101B83002020425554544F4E20444F574E2000209E
:101B93002020205A65726F2043200020463A2025DA
:101BA3006C34642E256C303364204B687A2000201B
:101BB3005A2D433A204572726F722E2000205A2DFF
:101BC300433A2053414D452E2000205A2D433A25B8
:101BD3006C34642E253032642070462000204C3A49
:101BE30020256C34642E2530326420207548200073
:101BF300204C3A20256C34642E2530326420206D2D
:101C0300482000204C3A20204F5645522E202000D9
:100A8600A8811818C6B2E7C6020FB2AF82AE83AD10
:100A9600F0FC900063EFF0EEA3F0EDA3F0ECA3F012
:100AA600900063E0FCA3E0FDA3E0FEA3E0FF30E7D7
:100AB6000FC3E49CF8E49DF9E49EFAE49FFB8008EA
:100AC6008C008D018E028F0390005FE0FCA3E0FD99
:100AD600A3E0FEA3E0FF30E713C3E49CF50BE49D1F
:100AE600F50CE49EF50DE49FF50E80088C0B8D0C3D
:100AF6008E0D8F0E900067E50BF0E50CA3F0E50D6B
:100B0600A3F0E50EA3F0888289838AF0EB120B45E9
:100B1600AC82AD83AEF0FF900063E0A3E0A3E0A358
:100B2600E030E713C3E49CF8E49DF9E49EFAE49F01
:100B3600888289838AF0228C828D838EF0EF22AFA1
:100B460082AE83ADF0FC90006BEFF0EEA3F0EDA368
:100B5600F0ECA3F090006FE4F090006BE0FCA3E0F3
:100B6600FDA3E0FEA3E0FF7B00900067E0F516A37F
:100B7600E0F517A3E0F518A3E0F519235401FA7080
:100B860074C003E5162516F8E51733F9E51833FAA8
:100B9600E51933FB900067E8F0E9A3F0EAA3F0EB70
:100BA600A3F0900067E0F516A3E0F517A3E0F518AB
:100BB600A3E0F519C3EC9516ED9517EE9518EF958C
:100BC60019D0035027E519C313F519E51813F518BD
:100BD600E51713F517E51613F516900067F0E517F8
:100BE600A3F0E518A3F0E519A3F080090B90006FB8
:100BF600EBF0020B6F90006FE0FF90006BE0FBA341
:100C0600E0FCA3E0FDA3E0FE900067E0F516A3E09C
:100C1600F517A3E0F518A3E0F519C3EB9516EC95C7
:100C260017ED9518EE9519401790006BEBC39516C6
:100C3600F0EC9517A3F0ED9518A3F0EE9519A3F037
:100C4600900067E0FBA3E0FCA3E0FDA3E0C313FE76
:100C5600ED13FDEC13FCEB13900067F0ECA3F0ED45
:100C6600A3F0EEA3F08F061FEE708F90006BE0FCF2
:100C7600A3E0FDA3E0FEA3E08C828D838EF022AF7D
:100C8600F0AE83E582900073F0EEA3F0EFA3F09050
:100C96000073E0FDA3E0FEA3E0FF900070E0FAA37E
:100CA600E0FBA3E0FC8D168E178F188A828B838C4F
:100CB600F0121B10F9A3AA82AB83851682851783CF
:100CC6008518F0E9120F67A3858216858317E970E8
:100CD600DA8D828E838FF022120D81BC0003021101
:100CE600A3EF60FA30D502B2D1E583B4FF03021157
:100CF600B9E582B4FF030211B92583400724824077
:100D06000B0211A324831450030211B9F582EA8D54
:100D1600F0A4A8F0EA8EF0A428F8E435F0F9EB8DFB
:100D2600F0A428E935F0F9E433CA8FF0A429F9EAEA
:100D360035F0FAEBF88EF0A429F9EA35F0FAE43347
:100D4600FBEC8DF0A429F9EA35F0FAE43BFBE88FD9
:100D5600F0A42AFAEB35F0FBE433CCFD8EF0A42A9E
:100D6600FAEB35F0FBE43CFCED8FF0A42BFBEC3505
:100D7600F0FC20E703120EA3021182AA82AB83A223
:100D8600F73392D1F5826002D2F7ACF0E58124F90F
:100D9600F8E6FD08E6FE0886F008E6A2F73392D5E7
:100DA600F5836002D2F7AFF022AF82AE83ADF0FCDE
:100DB60090007AEFF0EEA3F0EDA3F0ECA3F0900034
:100DC6007EE4F0A3F0A3F0A3F0900076E0FCA3E0AD
:100DD600FDA3E0FEA3E0FF7B20C00390007AE0F8CD
:100DE600A3E0F9A3E0FAA3E0FB900082235401F00C
:100DF600E828F8E933F9EA33FAEB33FB90007AE8AE
:100E0600F0E9A3F0EAA3F0EBA3F090007EE0F8A3EC
:100E1600E0F9A3E0FAA3E0FBE828F8E933F9EA33BE
:100E2600FAEB33FB90007EE8F0E9A3F0EAA3F0EBDF
:100E3600A3F0D003900082E0600890007EE043E0DB
:100E460001F090007EE0F516A3E0F517A3E0F51893
:100E5600A3E0F519C3E5169CE5179DE5189EE5196F
:100E66009F401F90007EE516C39CF0E5179DA3F0FA
:100E7600E5189EA3F0E5199FA3F090007AE043E001
:100E860001F01BEB6003020DDF90007AE0FCA3E0AB
:0D0E9600FDA3E0FEA3E08C828D838EF02290
:06002E00E4787FF6D8FD26
:100EA3007804EC7011E58224F8500AF582E4C9CA8B
:100EB300CBFCD8EF22EC7820058220E713D5820102
:100EC30022C3E933F9EA33FAEB33FBEC33FCD8EA18
:100ED300158222120F55C3749E95824039790012F0
:100EE3001B2C30D126E9F42401F582EAF43400F511
:100EF30083EBF43400F5F0ECF43400700AE582453A
:100F03008345F0700122E430E70F22EC20E71489D7
:100F1300828A838BF02230D10AE4F582F583F5F0DF
:100F230074802274FFF582F583F5F0747F22FFA8A5
:100F330081181812102912100BE96401F58222FCA2
:100F4300ABF0AA83A982749EC2D1F582120EA302CA
:100F53001182AA82AB83A2F73392D1F5826002D2C7
:100F6300F7ACF02220F71130F6138883A88220F51E
:100F730009F6A8837583002280FEF280F5F022FF34
:100F8300A8811818121029D2D133E6400730E70B95
:100F93007582002220E70675820122C2D112100B4E
:100FA300E97003F5822220D101B3E433F5822212E2
:100FB3000D817900E583B58202800D5003121A1B5F
:100FC300E583C39582121B2CE5D0C465D020E117BD
:100FD300EA2DFAEB3EFBEC3FFC50097401121B2C8B
:100FE300EC4480FC021182C3EA9DFAEB9EFBEC9F6A
:100FF300FC500FC3E499F9E49AFAE49BFBE49CFCEC
:10100300B2D1120EA30211827901AA82E68F82B5B0
:10101300821318E6B5F00E18E6B5830918E68A823E
:10102300B58202790022B4800FE5F0700AE583707F
:1010330006E58270027F00EFB6801518B60010181F
:10104300B6000B18B6000608080876002208080840
:1010530022C00F85810FC082058105810581E50FBF
:1010630024FBF8A90F0909E6F70809E6F70809E6DA
:10107300F7A80F080886820886830886F0121B10DB
:10108300FAA3121B10FBA3121B10FF74012AFCE42A
:101093003BFD8F06A80F080886820886830886F022
:1010A300EC120F67A3ED120F67A3EE120F678A828C
:1010B3008B838FF0A80F08E6120F67850F81D00F7F
:1010C30022AFF0AE83E582900088F0EEA3F0EFA3A9
:1010D300F0900084E0FDA3E0FEA3E0FF900087E032
:1010E300FC90009C7488F07400A3F0E4A3F09000DB
:1010F3009FEDF0EEA3F0EFA3F09000A2ECF09010C0
:10110300541212AEAE82AF83900088E0FBA3E0FCE2
:10111300A3E0FD8B828C838DF0E4120F678E828FA8
:101123008322C00F85810FE50F24F8FFE50F24FB11
:10113300FE7D007C4090009CEEF0EDA3F0ECA3F06C
:10114300E50F24F8F890009FE6F008E6A3F008E620
:10115300A3F09000A2EFF09010541212AEAE82AF43
:1011630083E50F24FBF886030886040886058B8233
:101173008C838DF0E4120F678E828F83D00F22B998
:101183008003EA13B34010EA2401FAE43BFBE43C96
:10119300FC50047C800582BC000EBB000BBA000827
:1011A300E4F5F0F583F58222A2D1E582138CF09267
:1011B300F78B838A8222E4F583F58275F080F4A2AB
:1011C300D11322E4F583F58275F0C0747F22E582A2
:1011D300900098F0E0FF90008EE0C0E0A3E0C0E054
:1011E300A3E0C0E01211EC800D90008CE0C0E0A3FE
:1011F300E0C0E08F8222158115811581900096E071
:101203002401F0A3E03400F022E582900099F0E09D
:101213002430FF24C6501374072FFF90008BE06027
:10122300098F057E004305208D078F820211D1E5CA
:101233008290009AF0E0FFC4540FF582C0071212A7
:101243000CD00753070F8F8202120CE58290009B8C
:10125300F0900091E0FCA3E0FDA3E0FEA3E0FF908B
:101263000095E0FB75162090009BE0F98B00E828C1
:10127300F8EF23540148FBEC2CFCED33FDEE33FE79
:10128300EF33FFC3EB994007EBC399FB430401E53D
:101293001614FA8A1670D5900091ECF0EDA3F0EED7
:1012A300A3F0EFA3F0900095EBF022AF83E58290DB
:1012B30000A3F0EFA3F09000A3E0FEA3E0FF9000F3
:1012C3008CEEF0EFA3F090009CE0FDA3E0FEA3E022
:1012D300FF90008EEDF0EEA3F0EFA3F0900096E404
:1012E300F0A3F090009FE0FDA3E0FEA3E0FF8D825A
:1012F3008E838FF0121B10FC90009F74012DF0E47D
:101303003EA3F0EFA3F0EC7003021A0FBC2502809A
:1013130003021A079000A5E4F09000A6F09000A73E
:10132300F09000A8F09000A9F09000AAF09000AB14
:10133300F09000ACF09000AEF09000AFF09000B0F1
:1013430014F090009FE0FDA3E0FEA3E0FF8D828EEA
:10135300838FF0121B10FBA3AD82AE8390009FED31
:10136300F0EEA3F0EFA3F09000B2EBF0BB25088BF7
:10137300821211D10212E6BB30004043EB24C64077
:101383003E9000B0E0FABAFF27C005C006C0079040
:1013930000AFE075F00AA4FF8B06EE2F24D0F0D047
:1013A30007D006D005E070A59000A67401F0809DDB
:1013B300EA75F00AA4FA2B24D09000B0F0808E9046
:1013C30000B2E0FBBB2E159000B0E0FABAFF02803A
:1013D300030213509000B0E4F0021350BB610040CD
:1013E30014EB2485400F9000B274DF5BF090008B08
:1013F3007401F0800590008BE4F09000B2E0FBBB39
:1014030020028075BB2B028067BB2D028059BB4233
:1014130002806FBB4302807CBB4403021655BB466C
:101423000302167BBB4803021350BB490302165544
:10143300BB4A03021350BB4C028050BB4F0302163E
:1014430063BB50030215C6BB53028077BB54030230
:101453001350BB550302166BBB5803021673BB5ADA
:10146300030213500216839000A57401F002135077
:101473009000A77401F00213509000A87401F002C9
:1014830013509000AA7401F00213509000AB740142
:10149300F00213509000AAE0600E9000A2E014F94D
:1014A300F09000B2E7F0800F9000A2E024FEFFF07E
:1014B3008F019000B2E7F09000B2E0F5821211D1F3
:1014C30002168F9000A2E024FDFFF08F018705092B
:1014D30087060987071919900091EDF0EEA3F0EF45
:1014E300A3F08D828E838FF0121A35AE829000B0F6
:1014F300E0FFBFFF059000B0EEF09000A5E0702E76
:101503009000AFE0FFC3EE9F50249000AFEFC39E67
:10151300F0E0FF8F051FED6010758220C007C00645
:101523001211D1D006D00780EA9000AFEFF09000FF
:10153300B0E0FFC006900091E0FAA3E0FDA3E0FE57
:101543008A828D838EF0121B10F510D006E5106091
:101553003E8F051FC374808DF063F08095F0502F8C
:10156300C006851082C007C0061211D1D006D0076D
:10157300900091E0FAA3E0FDA3E0FE0ABA00010D9A
:10158300900091EAF0EDA3F0EEA3F0D00680A490D2
:1015930000A5E0700302168F9000AFE0FFC3EE9F3B
:1015A300400302168F9000AFEFC39EF0E0FF8F065B
:1015B3001FEE700302168A758220C0071211D1D064
:1015C3000780EB9000A2E024FDFEF08E0187020964
:1015D30087050987061919900091EAF0EDA3F0EE4B
:1015E300A3F0900093E0FEBE800040089000B27428
:1015F30043F08020BE600040089000B27450F08039
:1016030013BE400040089000B27449F08006900079
:10161300B27458F09000B2E0FEF582C0061211D108
:1016230075823A1211D17582301211D175827812F6
:1016330011D1D006BE4902800EBE5002800990002F
:1016430092E0F582121232900091E0F5821212328A
:10165300803A9000A97401F09000AE740AF0802CD7
:101663009000AE7408F080249000AE740AF0801CE1
:101673009000AE7410F080149000AC7401F0800CF4
:101683008B821211D180059000AFEFF09000ACE097
:1016930060719000A2E024FCFFF08F0187030987AB
:1016A30005098706098707191919900091EBF0EDD1
:1016B300A3F0EEA3F0EFA3F09000917413F0741C69
:1016C300A3F07480A3F0900091E0F511A3E0F5126C
:1016D300A3E0F51374012511FAE43512FBAF13905F
:1016E3000091EAF0EBA3F0EFA3F08511828512835A
:1016F3008513F0121B10FF70030212E68F82121182
:10170300D180C39000AEE070030212E69000AAE01D
:1017130060479000A2E014F9F087077E007D007B0C
:1017230000900091EFF0EEA3F0EDA3F0EBA3F090A7
:1017330000A9E060030217D2900091E0FBA3E0A3AD
:10174300E0A3E07D007E007F00900091EBF0EDA32D
:10175300F0EEA3F0EFA3F080769000ABE06028906A
:1017630000A2E024FCFFF08F0187030987050987A6
:1017730006098707191919900091EBF0EDA3F0EE14
:10178300A3F0EFA3F080489000A2E024FEFFF08FC7
:1017930001870609870719EF3395E0FDFB90009158
:1017A300EEF0EFA3F0EDA3F0EBA3F09000A9E0704F
:1017B3001E900091E0FBA3E0FDA3E0A3E07E007F89
:1017C30000900091EBF0EDA3F0EEA3F0EFA3F09007
:1017D30000A9E06041900091E0FBA3E0FDA3E0FEDF
:1017E300A3E0FF30E72B900091E0FBA3E0FDA3E033
:1017F300FEA3E0FFC3E49BFBE49DFDE49EFEE49FA8
:10180300FF900091EBF0EDA3F0EEA3F0EFA3F080D7
:10181300059000A9E4F09000AD7401F09000AEE0F3
:10182300F5117514B8751500751000900095E4F066
:1018330085118212124E9000ADE07023900095E066
:10184300C4FA851482851583E0FF420285148285DC
:101853001583EAF0151474FFB514021515800C9066
:101863000095E0FA851482851583F005109000AD8C
:10187300E0B40100E433F0900091E0FAA3E0FBA3AD
:10188300E0FEA3E0FFEA4B4E4F70A09000B9E514D1
:10189300F0E515A3F09000B1E510F09000AFE07013
:1018A300069000AF7401F09000A6E0FFE0702F9067
:1018B30000A5E07029AE109000AFE0FD8E030BC3CE
:1018C300EB9D5015758220C007C006C0051211D1CB
:1018D300D005D006D0071D80E39000AFEDF0900057
:1018E300A9E0601275822DC0071211D1D0079000B4
:1018F300AFE014F080349000B1E0602E9000A7E0D8
:10190300601275822BC0071211D1D0079000AFE08F
:1019130014F080169000A8E06010758220C00712B2
:1019230011D1D0079000AFE014F09000A5E0703221
:101933009000B1E0FE9000AFE0FD8D031DC3EE9B70
:10194300503EEF60067A307B0080047A207B008A69
:1019530082C007C006C0051211D1D005D006D0073A
:1019630080D89000AFE0FF9000B1E0FEC39F500924
:101973009000AFEFC39EF0800C9000AFE4F08005C1
:101983009000AFEDF09000B9E0FEA3E0FF9000B14E
:10199300E0FD8D031DEB60499000ADE0B40100E470
:1019A30033F09000ADE070140EBE00010F8E828FF5
:1019B30083E0C4540FFB900095F0800E8E828F83DA
:1019C300E0FB53030F900095EBF0900095E0F58258
:1019D300C007C006C00512120CD005D006D0078080
:1019E300B19000A5E070030212E69000AFE0FF8F14
:1019F300061FEE70030212E6758220C0071211D192
:101A0300D00780EB8C821211D10212E6900096E08F
:081A1300FEA3E08E82F58322A0
:0B1C13003C4E4F20464C4F41543E0019
:101A1B00E582C583F582A2D133A2D592D11392D59B
:101A2B00ECCFFCEBCEFBEACDFA22AA82AB83121BE6
:101A3B00106003A380F8C3E5829AF582E5839BF5DA
:101A4B008322120D8130D502B2D1BF0009BC000335
:101A5B000211C60211B9BC00030211A3E583B4FF46
:101A6B000BE582B4FF030211C60211A3E582B4FF9A
:101A7B00030211B9C395835007247F400B0211A3B6
:101A8B0024801450030211B9F582C3ED9AEE9BEF3B
:101A9B009C40111582C3EA33F9EB33FAEC33FBE4C8
:101AAB0033FC8005E4CCCBCAF9C08275F019C3E9CD
:101ABB009DEA9EEB9FEC9400D5F002802D400EE941
:101ACB009DF9EA9EFAEB9FFBEC9400FCC3B3E83361
:101ADB00F8E58233F582E58333F583C3E933F9EA1D
:101AEB0033FAEB33FBEC33FC80C4B3E4F938FAE4A0
:101AFB003582FBE43583FCD082500405827C801256
:051B0B000EA302119A77
:0D002100758119121B6FE582600302001E3D
:101B100020F71430F6148883A88220F507E6A883FE
:101B200075830022E280F7E49322E0226040F825EA
:101B300082500274FFF582E824F8501ECCCBCAF91B
:101B4000E4CC24F85014CBCAF9E4CB24F8500BCAE7
:101B5000F9E4CA24F8500379002224086010F8C37D
:101B6000EC13FCEB13FBEA13FAE913F9D8F1227535
:031B7000820022CE
:00000001FF
